{
	"web3-week1/contracts/Counter.sol": {
		"Counter": {
			"abi": [
				{
					"inputs": [],
					"name": "count",
					"outputs": [
						{
							"internalType": "uint256",
							"name": "",
							"type": "uint256"
						}
					],
					"stateMutability": "view",
					"type": "function"
				},
				{
					"inputs": [],
					"name": "decrement",
					"outputs": [],
					"stateMutability": "nonpayable",
					"type": "function"
				},
				{
					"inputs": [],
					"name": "increment",
					"outputs": [],
					"stateMutability": "nonpayable",
					"type": "function"
				}
			],
			"devdoc": {
				"kind": "dev",
				"methods": {},
				"version": 1
			},
			"evm": {
				"assembly": "    /* \"web3-week1/contracts/Counter.sol\":60:295  contract Counter {... */\n  mstore(0x40, 0x80)\n  callvalue\n  dup1\n  iszero\n  tag_1\n  jumpi\n  revert(0x00, 0x00)\ntag_1:\n  pop\n  dataSize(sub_0)\n  dup1\n  dataOffset(sub_0)\n  0x00\n  codecopy\n  0x00\n  return\nstop\n\nsub_0: assembly {\n        /* \"web3-week1/contracts/Counter.sol\":60:295  contract Counter {... */\n      mstore(0x40, 0x80)\n      callvalue\n      dup1\n      iszero\n      tag_1\n      jumpi\n      revert(0x00, 0x00)\n    tag_1:\n      pop\n      jumpi(tag_2, lt(calldatasize, 0x04))\n      shr(0xe0, calldataload(0x00))\n      dup1\n      0x06661abd\n      eq\n      tag_3\n      jumpi\n      dup1\n      0x2baeceb7\n      eq\n      tag_4\n      jumpi\n      dup1\n      0xd09de08a\n      eq\n      tag_5\n      jumpi\n    tag_2:\n      revert(0x00, 0x00)\n        /* \"web3-week1/contracts/Counter.sol\":84:104  uint256 public count */\n    tag_3:\n      tag_6\n      tag_7\n      jump\t// in\n    tag_6:\n      mload(0x40)\n      tag_8\n      swap2\n      swap1\n      tag_9\n      jump\t// in\n    tag_8:\n      mload(0x40)\n      dup1\n      swap2\n      sub\n      swap1\n      return\n        /* \"web3-week1/contracts/Counter.sol\":178:292  function decrement() public {... */\n    tag_4:\n      tag_10\n      tag_11\n      jump\t// in\n    tag_10:\n      stop\n        /* \"web3-week1/contracts/Counter.sol\":113:170  function increment() public {... */\n    tag_5:\n      tag_12\n      tag_13\n      jump\t// in\n    tag_12:\n      stop\n        /* \"web3-week1/contracts/Counter.sol\":84:104  uint256 public count */\n    tag_7:\n      sload(0x00)\n      dup2\n      jump\t// out\n        /* \"web3-week1/contracts/Counter.sol\":178:292  function decrement() public {... */\n    tag_11:\n        /* \"web3-week1/contracts/Counter.sol\":233:234  0 */\n      0x00\n        /* \"web3-week1/contracts/Counter.sol\":225:230  count */\n      sload(0x00)\n        /* \"web3-week1/contracts/Counter.sol\":225:234  count > 0 */\n      gt\n        /* \"web3-week1/contracts/Counter.sol\":217:263  require(count > 0, \"Count cannot be negative\") */\n      tag_15\n      jumpi\n      mload(0x40)\n      0x08c379a000000000000000000000000000000000000000000000000000000000\n      dup2\n      mstore\n      0x04\n      add\n      tag_16\n      swap1\n      tag_17\n      jump\t// in\n    tag_16:\n      mload(0x40)\n      dup1\n      swap2\n      sub\n      swap1\n      revert\n    tag_15:\n        /* \"web3-week1/contracts/Counter.sol\":283:284  1 */\n      0x01\n        /* \"web3-week1/contracts/Counter.sol\":274:279  count */\n      0x00\n      0x00\n        /* \"web3-week1/contracts/Counter.sol\":274:284  count -= 1 */\n      dup3\n      dup3\n      sload\n      tag_18\n      swap2\n      swap1\n      tag_19\n      jump\t// in\n    tag_18:\n      swap3\n      pop\n      pop\n      dup2\n      swap1\n      sstore\n      pop\n        /* \"web3-week1/contracts/Counter.sol\":178:292  function decrement() public {... */\n      jump\t// out\n        /* \"web3-week1/contracts/Counter.sol\":113:170  function increment() public {... */\n    tag_13:\n        /* \"web3-week1/contracts/Counter.sol\":161:162  1 */\n      0x01\n        /* \"web3-week1/contracts/Counter.sol\":152:157  count */\n      0x00\n      0x00\n        /* \"web3-week1/contracts/Counter.sol\":152:162  count += 1 */\n      dup3\n      dup3\n      sload\n      tag_21\n      swap2\n      swap1\n      tag_22\n      jump\t// in\n    tag_21:\n      swap3\n      pop\n      pop\n      dup2\n      swap1\n      sstore\n      pop\n        /* \"web3-week1/contracts/Counter.sol\":113:170  function increment() public {... */\n      jump\t// out\n        /* \"#utility.yul\":7:84   */\n    tag_23:\n        /* \"#utility.yul\":44:51   */\n      0x00\n        /* \"#utility.yul\":73:78   */\n      dup2\n        /* \"#utility.yul\":62:78   */\n      swap1\n      pop\n        /* \"#utility.yul\":7:84   */\n      swap2\n      swap1\n      pop\n      jump\t// out\n        /* \"#utility.yul\":90:208   */\n    tag_24:\n        /* \"#utility.yul\":177:201   */\n      tag_32\n        /* \"#utility.yul\":195:200   */\n      dup2\n        /* \"#utility.yul\":177:201   */\n      tag_23\n      jump\t// in\n    tag_32:\n        /* \"#utility.yul\":172:175   */\n      dup3\n        /* \"#utility.yul\":165:202   */\n      mstore\n        /* \"#utility.yul\":90:208   */\n      pop\n      pop\n      jump\t// out\n        /* \"#utility.yul\":214:436   */\n    tag_9:\n        /* \"#utility.yul\":307:311   */\n      0x00\n        /* \"#utility.yul\":345:347   */\n      0x20\n        /* \"#utility.yul\":334:343   */\n      dup3\n        /* \"#utility.yul\":330:348   */\n      add\n        /* \"#utility.yul\":322:348   */\n      swap1\n      pop\n        /* \"#utility.yul\":358:429   */\n      tag_34\n        /* \"#utility.yul\":426:427   */\n      0x00\n        /* \"#utility.yul\":415:424   */\n      dup4\n        /* \"#utility.yul\":411:428   */\n      add\n        /* \"#utility.yul\":402:408   */\n      dup5\n        /* \"#utility.yul\":358:429   */\n      tag_24\n      jump\t// in\n    tag_34:\n        /* \"#utility.yul\":214:436   */\n      swap3\n      swap2\n      pop\n      pop\n      jump\t// out\n        /* \"#utility.yul\":442:611   */\n    tag_25:\n        /* \"#utility.yul\":526:537   */\n      0x00\n        /* \"#utility.yul\":560:566   */\n      dup3\n        /* \"#utility.yul\":555:558   */\n      dup3\n        /* \"#utility.yul\":548:567   */\n      mstore\n        /* \"#utility.yul\":600:604   */\n      0x20\n        /* \"#utility.yul\":595:598   */\n      dup3\n        /* \"#utility.yul\":591:605   */\n      add\n        /* \"#utility.yul\":576:605   */\n      swap1\n      pop\n        /* \"#utility.yul\":442:611   */\n      swap3\n      swap2\n      pop\n      pop\n      jump\t// out\n        /* \"#utility.yul\":617:791   */\n    tag_26:\n        /* \"#utility.yul\":757:783   */\n      0x436f756e742063616e6e6f74206265206e656761746976650000000000000000\n        /* \"#utility.yul\":753:754   */\n      0x00\n        /* \"#utility.yul\":745:751   */\n      dup3\n        /* \"#utility.yul\":741:755   */\n      add\n        /* \"#utility.yul\":734:784   */\n      mstore\n        /* \"#utility.yul\":617:791   */\n      pop\n      jump\t// out\n        /* \"#utility.yul\":797:1163   */\n    tag_27:\n        /* \"#utility.yul\":939:942   */\n      0x00\n        /* \"#utility.yul\":960:1027   */\n      tag_38\n        /* \"#utility.yul\":1024:1026   */\n      0x18\n        /* \"#utility.yul\":1019:1022   */\n      dup4\n        /* \"#utility.yul\":960:1027   */\n      tag_25\n      jump\t// in\n    tag_38:\n        /* \"#utility.yul\":953:1027   */\n      swap2\n      pop\n        /* \"#utility.yul\":1036:1129   */\n      tag_39\n        /* \"#utility.yul\":1125:1128   */\n      dup3\n        /* \"#utility.yul\":1036:1129   */\n      tag_26\n      jump\t// in\n    tag_39:\n        /* \"#utility.yul\":1154:1156   */\n      0x20\n        /* \"#utility.yul\":1149:1152   */\n      dup3\n        /* \"#utility.yul\":1145:1157   */\n      add\n        /* \"#utility.yul\":1138:1157   */\n      swap1\n      pop\n        /* \"#utility.yul\":797:1163   */\n      swap2\n      swap1\n      pop\n      jump\t// out\n        /* \"#utility.yul\":1169:1588   */\n    tag_17:\n        /* \"#utility.yul\":1335:1339   */\n      0x00\n        /* \"#utility.yul\":1373:1375   */\n      0x20\n        /* \"#utility.yul\":1362:1371   */\n      dup3\n        /* \"#utility.yul\":1358:1376   */\n      add\n        /* \"#utility.yul\":1350:1376   */\n      swap1\n      pop\n        /* \"#utility.yul\":1422:1431   */\n      dup2\n        /* \"#utility.yul\":1416:1420   */\n      dup2\n        /* \"#utility.yul\":1412:1432   */\n      sub\n        /* \"#utility.yul\":1408:1409   */\n      0x00\n        /* \"#utility.yul\":1397:1406   */\n      dup4\n        /* \"#utility.yul\":1393:1410   */\n      add\n        /* \"#utility.yul\":1386:1433   */\n      mstore\n        /* \"#utility.yul\":1450:1581   */\n      tag_41\n        /* \"#utility.yul\":1576:1580   */\n      dup2\n        /* \"#utility.yul\":1450:1581   */\n      tag_27\n      jump\t// in\n    tag_41:\n        /* \"#utility.yul\":1442:1581   */\n      swap1\n      pop\n        /* \"#utility.yul\":1169:1588   */\n      swap2\n      swap1\n      pop\n      jump\t// out\n        /* \"#utility.yul\":1594:1774   */\n    tag_28:\n        /* \"#utility.yul\":1642:1719   */\n      0x4e487b7100000000000000000000000000000000000000000000000000000000\n        /* \"#utility.yul\":1639:1640   */\n      0x00\n        /* \"#utility.yul\":1632:1720   */\n      mstore\n        /* \"#utility.yul\":1739:1743   */\n      0x11\n        /* \"#utility.yul\":1736:1737   */\n      0x04\n        /* \"#utility.yul\":1729:1744   */\n      mstore\n        /* \"#utility.yul\":1763:1767   */\n      0x24\n        /* \"#utility.yul\":1760:1761   */\n      0x00\n        /* \"#utility.yul\":1753:1768   */\n      revert\n        /* \"#utility.yul\":1780:1974   */\n    tag_19:\n        /* \"#utility.yul\":1820:1824   */\n      0x00\n        /* \"#utility.yul\":1840:1860   */\n      tag_44\n        /* \"#utility.yul\":1858:1859   */\n      dup3\n        /* \"#utility.yul\":1840:1860   */\n      tag_23\n      jump\t// in\n    tag_44:\n        /* \"#utility.yul\":1835:1860   */\n      swap2\n      pop\n        /* \"#utility.yul\":1874:1894   */\n      tag_45\n        /* \"#utility.yul\":1892:1893   */\n      dup4\n        /* \"#utility.yul\":1874:1894   */\n      tag_23\n      jump\t// in\n    tag_45:\n        /* \"#utility.yul\":1869:1894   */\n      swap3\n      pop\n        /* \"#utility.yul\":1918:1919   */\n      dup3\n        /* \"#utility.yul\":1915:1916   */\n      dup3\n        /* \"#utility.yul\":1911:1920   */\n      sub\n        /* \"#utility.yul\":1903:1920   */\n      swap1\n      pop\n        /* \"#utility.yul\":1942:1943   */\n      dup2\n        /* \"#utility.yul\":1936:1940   */\n      dup2\n        /* \"#utility.yul\":1933:1944   */\n      gt\n        /* \"#utility.yul\":1930:1967   */\n      iszero\n      tag_46\n      jumpi\n        /* \"#utility.yul\":1947:1965   */\n      tag_47\n      tag_28\n      jump\t// in\n    tag_47:\n        /* \"#utility.yul\":1930:1967   */\n    tag_46:\n        /* \"#utility.yul\":1780:1974   */\n      swap3\n      swap2\n      pop\n      pop\n      jump\t// out\n        /* \"#utility.yul\":1980:2171   */\n    tag_22:\n        /* \"#utility.yul\":2020:2023   */\n      0x00\n        /* \"#utility.yul\":2039:2059   */\n      tag_49\n        /* \"#utility.yul\":2057:2058   */\n      dup3\n        /* \"#utility.yul\":2039:2059   */\n      tag_23\n      jump\t// in\n    tag_49:\n        /* \"#utility.yul\":2034:2059   */\n      swap2\n      pop\n        /* \"#utility.yul\":2073:2093   */\n      tag_50\n        /* \"#utility.yul\":2091:2092   */\n      dup4\n        /* \"#utility.yul\":2073:2093   */\n      tag_23\n      jump\t// in\n    tag_50:\n        /* \"#utility.yul\":2068:2093   */\n      swap3\n      pop\n        /* \"#utility.yul\":2116:2117   */\n      dup3\n        /* \"#utility.yul\":2113:2114   */\n      dup3\n        /* \"#utility.yul\":2109:2118   */\n      add\n        /* \"#utility.yul\":2102:2118   */\n      swap1\n      pop\n        /* \"#utility.yul\":2137:2140   */\n      dup1\n        /* \"#utility.yul\":2134:2135   */\n      dup3\n        /* \"#utility.yul\":2131:2141   */\n      gt\n        /* \"#utility.yul\":2128:2164   */\n      iszero\n      tag_51\n      jumpi\n        /* \"#utility.yul\":2144:2162   */\n      tag_52\n      tag_28\n      jump\t// in\n    tag_52:\n        /* \"#utility.yul\":2128:2164   */\n    tag_51:\n        /* \"#utility.yul\":1980:2171   */\n      swap3\n      swap2\n      pop\n      pop\n      jump\t// out\n\n    auxdata: 0xa264697066735822122014f8924a1e008ba757c4635e5326a70dfc41a0464252048939abe4f157c4543e64736f6c634300081f0033\n}\n",
				"bytecode": {
					"linkReferences": {},
					"object": "6080604052348015600e575f5ffd5b506102638061001c5f395ff3fe608060405234801561000f575f5ffd5b506004361061003f575f3560e01c806306661abd146100435780632baeceb714610061578063d09de08a1461006b575b5f5ffd5b61004b610075565b6040516100589190610109565b60405180910390f35b61006961007a565b005b6100736100d7565b005b5f5481565b5f5f54116100bd576040517f08c379a00000000000000000000000000000000000000000000000000000000081526004016100b49061017c565b60405180910390fd5b60015f5f8282546100ce91906101c7565b92505081905550565b60015f5f8282546100e891906101fa565b92505081905550565b5f819050919050565b610103816100f1565b82525050565b5f60208201905061011c5f8301846100fa565b92915050565b5f82825260208201905092915050565b7f436f756e742063616e6e6f74206265206e6567617469766500000000000000005f82015250565b5f610166601883610122565b915061017182610132565b602082019050919050565b5f6020820190508181035f8301526101938161015a565b9050919050565b7f4e487b71000000000000000000000000000000000000000000000000000000005f52601160045260245ffd5b5f6101d1826100f1565b91506101dc836100f1565b92508282039050818111156101f4576101f361019a565b5b92915050565b5f610204826100f1565b915061020f836100f1565b92508282019050808211156102275761022661019a565b5b9291505056fea264697066735822122014f8924a1e008ba757c4635e5326a70dfc41a0464252048939abe4f157c4543e64736f6c634300081f0033",
					"opcodes": "PUSH1 0x80 PUSH1 0x40 MSTORE CALLVALUE DUP1 ISZERO PUSH1 0xE JUMPI PUSH0 PUSH0 REVERT JUMPDEST POP PUSH2 0x263 DUP1 PUSH2 0x1C PUSH0 CODECOPY PUSH0 RETURN INVALID PUSH1 0x80 PUSH1 0x40 MSTORE CALLVALUE DUP1 ISZERO PUSH2 0xF JUMPI PUSH0 PUSH0 REVERT JUMPDEST POP PUSH1 0x4 CALLDATASIZE LT PUSH2 0x3F JUMPI PUSH0 CALLDATALOAD PUSH1 0xE0 SHR DUP1 PUSH4 0x6661ABD EQ PUSH2 0x43 JUMPI DUP1 PUSH4 0x2BAECEB7 EQ PUSH2 0x61 JUMPI DUP1 PUSH4 0xD09DE08A EQ PUSH2 0x6B JUMPI JUMPDEST PUSH0 PUSH0 REVERT JUMPDEST PUSH2 0x4B PUSH2 0x75 JUMP JUMPDEST PUSH1 0x40 MLOAD PUSH2 0x58 SWAP2 SWAP1 PUSH2 0x109 JUMP JUMPDEST PUSH1 0x40 MLOAD DUP1 SWAP2 SUB SWAP1 RETURN JUMPDEST PUSH2 0x69 PUSH2 0x7A JUMP JUMPDEST STOP JUMPDEST PUSH2 0x73 PUSH2 0xD7 JUMP JUMPDEST STOP JUMPDEST PUSH0 SLOAD DUP2 JUMP JUMPDEST PUSH0 PUSH0 SLOAD GT PUSH2 0xBD JUMPI PUSH1 0x40 MLOAD PUSH32 0x8C379A000000000000000000000000000000000000000000000000000000000 DUP2 MSTORE PUSH1 0x4 ADD PUSH2 0xB4 SWAP1 PUSH2 0x17C JUMP JUMPDEST PUSH1 0x40 MLOAD DUP1 SWAP2 SUB SWAP1 REVERT JUMPDEST PUSH1 0x1 PUSH0 PUSH0 DUP3 DUP3 SLOAD PUSH2 0xCE SWAP2 SWAP1 PUSH2 0x1C7 JUMP JUMPDEST SWAP3 POP POP DUP2 SWAP1 SSTORE POP JUMP JUMPDEST PUSH1 0x1 PUSH0 PUSH0 DUP3 DUP3 SLOAD PUSH2 0xE8 SWAP2 SWAP1 PUSH2 0x1FA JUMP JUMPDEST SWAP3 POP POP DUP2 SWAP1 SSTORE POP JUMP JUMPDEST PUSH0 DUP2 SWAP1 POP SWAP2 SWAP1 POP JUMP JUMPDEST PUSH2 0x103 DUP2 PUSH2 0xF1 JUMP JUMPDEST DUP3 MSTORE POP POP JUMP JUMPDEST PUSH0 PUSH1 0x20 DUP3 ADD SWAP1 POP PUSH2 0x11C PUSH0 DUP4 ADD DUP5 PUSH2 0xFA JUMP JUMPDEST SWAP3 SWAP2 POP POP JUMP JUMPDEST PUSH0 DUP3 DUP3 MSTORE PUSH1 0x20 DUP3 ADD SWAP1 POP SWAP3 SWAP2 POP POP JUMP JUMPDEST PUSH32 0x436F756E742063616E6E6F74206265206E656761746976650000000000000000 PUSH0 DUP3 ADD MSTORE POP JUMP JUMPDEST PUSH0 PUSH2 0x166 PUSH1 0x18 DUP4 PUSH2 0x122 JUMP JUMPDEST SWAP2 POP PUSH2 0x171 DUP3 PUSH2 0x132 JUMP JUMPDEST PUSH1 0x20 DUP3 ADD SWAP1 POP SWAP2 SWAP1 POP JUMP JUMPDEST PUSH0 PUSH1 0x20 DUP3 ADD SWAP1 POP DUP2 DUP2 SUB PUSH0 DUP4 ADD MSTORE PUSH2 0x193 DUP2 PUSH2 0x15A JUMP JUMPDEST SWAP1 POP SWAP2 SWAP1 POP JUMP JUMPDEST PUSH32 0x4E487B7100000000000000000000000000000000000000000000000000000000 PUSH0 MSTORE PUSH1 0x11 PUSH1 0x4 MSTORE PUSH1 0x24 PUSH0 REVERT JUMPDEST PUSH0 PUSH2 0x1D1 DUP3 PUSH2 0xF1 JUMP JUMPDEST SWAP2 POP PUSH2 0x1DC DUP4 PUSH2 0xF1 JUMP JUMPDEST SWAP3 POP DUP3 DUP3 SUB SWAP1 POP DUP2 DUP2 GT ISZERO PUSH2 0x1F4 JUMPI PUSH2 0x1F3 PUSH2 0x19A JUMP JUMPDEST JUMPDEST SWAP3 SWAP2 POP POP JUMP JUMPDEST PUSH0 PUSH2 0x204 DUP3 PUSH2 0xF1 JUMP JUMPDEST SWAP2 POP PUSH2 0x20F DUP4 PUSH2 0xF1 JUMP JUMPDEST SWAP3 POP DUP3 DUP3 ADD SWAP1 POP DUP1 DUP3 GT ISZERO PUSH2 0x227 JUMPI PUSH2 0x226 PUSH2 0x19A JUMP JUMPDEST JUMPDEST SWAP3 SWAP2 POP POP JUMP INVALID LOG2 PUSH5 0x6970667358 0x22 SLT KECCAK256 EQ EXTCALL SWAP3 BLOBBASEFEE CLZ STOP DUP12 0xA7 JUMPI 0xC4 PUSH4 0x5E5326A7 0xD 0xFC COINBASE LOG0 CHAINID TIMESTAMP MSTORE DIV DUP10 CODECOPY 0xAB RETF CALL JUMPI 0xC4 SLOAD RETURNDATACOPY PUSH5 0x736F6C6343 STOP ADDMOD 0x1F STOP CALLER "
				},
				"gasEstimates": {
					"creation": {
						"codeDepositCost": "122200",
						"executionCost": "169",
						"totalCost": "122369"
					},
					"external": {
						"count()": "2402",
						"decrement()": "infinite",
						"increment()": "infinite"
					}
				},
				"methodIdentifiers": {
					"count()": "06661abd",
					"decrement()": "2baeceb7",
					"increment()": "d09de08a"
				}
			},
			"storageLayout": {
				"storage": [
					{
						"astId": 3,
						"contract": "web3-week1/contracts/Counter.sol:Counter",
						"label": "count",
						"offset": 0,
						"slot": "0",
						"type": "t_uint256"
					}
				],
				"types": {
					"t_uint256": {
						"encoding": "inplace",
						"label": "uint256",
						"numberOfBytes": "32"
					}
				}
			},
			"userdoc": {
				"kind": "user",
				"methods": {},
				"version": 1
			}
		}
	}
}